:100000000C9434000C943E000C943E000C943E0082
:100010000C943E000C943E000C943E000C943E0068
:100020000C943E000C943E000C943E000C943E0058
:100030000C943E000C943E000C943E000C943E0048
:100040000C943E000C943E000C943E000C943E0038
:100050000C943E000C943E000C943E000C943E0028
:100060000C943E000C943E0011241FBECFEFD8E04C
:10007000DEBFCDBF0E9440000C9455000C940000E0
:10008000399A3B9A3D9A8AB180668AB980E68BB9E3
:10009000349905C0419A459A8BB18066F8CF8BB1EF
:0E00A0008F798BB941984598F3CFF894FFCF34
:00000001FF
