:100000000C9434000C943E000C943E000C943E0082
:100010000C943E000C943E000C943E000C943E0068
:100020000C943E000C943E000C943E000C943E0058
:100030000C943E000C943E000C943E000C943E0048
:100040000C943E000C943E000C943E000C943E0038
:100050000C943E000C943E000C943E000C943E0028
:100060000C943E000C943E0011241FBECFEFD8E04C
:10007000DEBFCDBF0E9440000C9460000C940000D5
:10008000399A3B9A8AB180668AB980E28BB932E0AC
:1000900040E628E084E098B1932798B99BB1942773
:1000A0009BB95FEF69E698E1515060409040E1F7FD
:1000B00000C00000815079F788B1822788B9EACF63
:0400C000F894FFCFE2
:00000001FF
